:020000040800F2
:1000000000000220EDE30008390800083D08000860
:1000100041080008450800084908000800000000E1
:100020000000000000000000000000004D08000873
:100030005108000800000000550800085504000899
:100040003DE400083DE400083DE400083DE400080C
:100050003DE400083DE40008610800085908000874
:100060003DE400083DE400083DE400083DE40008EC
:100070003DE400083DE400083DE400083DE40008DC
:100080003DE400083DE400083DE400083DE40008CC
:100090003DE400083DE400083DE400083DE40008BC
:1000A0003DE400083DE400083DE400083DE40008AC
:1000B000690800083DE400083DE400083DE400084C
:1000C0003DE400083DE400083DE400083DE400088C
:1000D0003DE400083DE40008650400083DE4000834
:1000E0003DE400083DE400083DE400083DE400086C
:1000F0003DE400083DE400083DE400088D0F0008E1
:100100003DE400083DE400083DE400083DE400084B
:100110003DE400083DE400083DE400083DE400083B
:100120003DE400083DE400083DE400083DE400082B
:100130003DE400083DE400083DE400083DE400081B
:100140003DE400083DE400083DE400086D080008B7
:100150003DE400083DE400083DE400083DE40008FB
:100160003DE400083DE400083DE400083DE40008EB
:100170003DE400083DE400083DE400083DE40008DB
:080180003DE400083DE4000825
:10018800F0B54FF4406083B0C4F2020000292BD0D0
:100198004FF4005108F018FF4FF44060C4F2020019
:1001A8004FF4804108F012FF374E384D384C29681B
:1001B8002068384F01F09AF8296823680246C2EB94
:1001C800010C03EB020E00223868009221462A46F1
:1001D8003346C5F800C0C4F800E001F0E3F888B180
:1001E80002301ED003B0F0BD4FF4804108F0ECFEA1
:1001F8004FF44060C4F202004FF4005108F0E6FEEC
:10020800254ED2E7254D3868294601F085F86868FB
:10021800012809D02969304603B0BDE8F04000F054
:10022800A5BE1E490969F6E728694100002829DBAF
:10023800731806EB80021C88148033F8024900F01A
:1002480001075480043A441EE0B147B11888108071
:1002580033F80209013C5080043A601C12D01F8810
:100268001846178030F80279578033F8027C034625
:1002780022F8047C33F80209023C22F8020C083AFE
:10028800601CECD12961C6E748090020ACD40020E5
:10029800B0D4002000AE002048290020B4D40020AB
:1002A80070B582B002AB002203F8052D2E4C0192E6
:1002B80006460D4620461946012201AB06F072FE9D
:1002C80010B90198012802D0012002B070BD013E8A
:1002D800772E10D820462946324601AB06F062FE3A
:1002E80010B1019B9E42EFD19DF8030060B1012837
:1002F8000CD00020E9E7A1682046711807F0BCF887
:10030800003018BF0120E0E7A855DEE7022E26D905
:100318002A78FF2A1ED00023DA43E95C02339019B9
:1003280001229E422970C0F3400110D929B1EA5C2C
:1003380002336A7002229E4209D9E85C0233A8544B
:100348000132E95C0233A95401329E42F5D80020FB
:10035800A854BAE76878FE28DDD10223DCE7002E2E
:10036800D9D13246F3E700BFDCA9002038B50B78B5
:100378000C4605468BB14FF488404021C4F200007A
:1003880009F004FF0028F6D02178284609F03AFE43
:10039800237814F8010F0028EDD138BD01202DE98C
:1003A800F041014608F070FB01214FF4003008F0DD
:1003B80095FB00264BF2F833C2F20003C4F20206A2
:1003C80000240125194602274FF00C083046C3F8CF
:1003D80000805F711F719C71DD7108F073FD3046FC
:1003E8003946072208F000FE30460722032108F0AC
:1003F800FBFD4FF488464BF20043C2F20003C4F2FF
:100408000006194630464FF4E1421A609C80DC80B1
:100418001C819C81A3F80A8009F03AFD30462A46DF
:1004280040F2255109F094FE4DF21441C2F2000148
:10043800084626230B704C708C70CD7008F080F93C
:1004480030462946BDE8F04109F0A8BD4BF21043FB
:10045800C2F200031A68501C1860704710B54FF4B8
:100468008844C4F20004204640F2255109F098FE61
:1004780028B1A388D8B2322806D0332800D010BDBE
:10048800BDE8104000F07ABBBDE8104000F084BB26
:1004980010B52E2104460EF04FFB18B1A04201D032
:1004A800013010BD004810BD648301082DE9F04FEC
:1004B800A84BA949ADF50B7D4FF4807213A8119391
:1004C800129207F0B5F8002840F0A580A34CA44E7E
:1004D800A44D13A80BA907F0E1F8002840F09B8071
:1004E8009DF83510002900F096802E29F1D0119B37
:1004F800187808B90DF135039DF8342002F0100181
:10050800C8B20028E5D19849934A58A80EF06EF968
:1005180058A8FFF7BDFF014694480EF08FF9002850
:10052800D7D1DFF84C8235604FF40057404658A9C0
:100538000122276006F08AFC07460028C9D14046F8
:1005480005A90A2202AB8DF870708DF8E870029741
:1005580006F028FD58B9029B0A2B08D19DF81420F3
:10056800492A5CD082468248514606F085FF7D497B
:100578007F48804F4FF4005202AB06F013FD00F0A5
:10058800AFFE022106220023386040F20F1000F06F
:100598001DFBAF2000F00CFB7748002100F070FC39
:1005A8004FF0000940F6FF774FF4005AC4F20209F1
:1005B8002368BB42FCDC226831686A480DF086FF7C
:1005C800226821686A483560C2F5005802AB69188C
:1005D800424606F0E7FC029BC4F800A0984504D800
:1005E80018B9D9F81000C207E2D500F077FC062246
:1005F8000221002340F20F1000F0E8FA002000F07A
:10060800D7FA5B4806F030FF0022C4F202021169F3
:10061800CB07FCD45DE70DF50B7DBDE8F08F9DF8A9
:10062800151044299ED19DF81670332F9AD19DF844
:100638001B109DF817709DF81A009DF81D209DF855
:1006480019309DF81C90019701F07F0100F07F00A0
:100658008F0347EA405102F07F0203F0400341EA6A
:10066800020009F07F0CD9B240EACC1A08AF002981
:1006780040F08A804FF002093D4839460A2202AB11
:1006880006F090FC834600287FF471AF02980A2890
:100698007FF46DAF397800293FF465AF38463749A4
:1006A80003220EF0B9F900283FF45DAF019A3B68C8
:1006B8008DF810B0032A039340D0042A2BD003A846
:1006C8002F490EF0BBF8F8B103A82E490EF0B6F882
:1006D80060B958463AA9FFF7E3FD00287FF443AF15
:1006E80009F1FF39B9F1000FC6D13CE7D8F8082065
:1006F8001F480BEB020106F0BFFE00287FF437AF5E
:10070800B9F1000FB8D12EE758461CA9FFF7C8FD6C
:100718000028E5D027E738797979BA79FB7901F0AB
:100728007F0100F07F0001EBC01002F07F0202EBB6
:10073800C01103F07F0303EBC11BC0E77979387957
:10074800BA79FB7901EB002002EB002103EB012BC6
:10075800B5E700BF4849002064830108ACD40020F5
:10076800B0D4002014B40020508301085883010835
:10077800DCA9002000AE0020890100085C83010884
:1007880060830108688301083946042202AB4046A9
:1007980006F008FC787897F800E0FA78B978D8F885
:1007A800083000F07F000EF07F09800302F07F021E
:1007B80040EA4950104301F07F0140EAC112043B6E
:1007C8004046991806F058FE00283FF453AFCEE68D
:1007D800054B1A6812B11868411E1960034B1A6854
:1007E800501C1860704700BFD8A9002004AE002034
:1007F8004EF21003CEF200034FF46D4110B4CEF266
:10080800000141F63F745C60F02481F82340002128
:100818009960054A07211960116813685B1A8342B9
:10082800FBD310BC704700BF10B40020704700BF56
:10083800704700BFFEE700BFFEE700BFFEE700BF4E
:10084800FEE700BF704700BF704700BF704700BF9A
:10085800022008F0A5BA00BF012008F0A1BA00BF25
:1008680000F018BD4AF60860C2F200000BF09EBC0A
:100878004FF46D42CEF200024FF46053D2F8881064
:10088800C4F2020341F47000C2F88800196800221B
:1008980041F0010018609A60186843F2100120F0D6
:1008A800847020F48030C2F20041186059601968E1
:1008B80082B021F480201860DA60009201921A68F0
:1008C80042F480311960184603E00099B1F5A06F31
:1008D80009D0036803F40032019200994B1C00937D
:1008E800019A002AF1D04FF46050C4F20200036864
:1008F80013F400320DD001210191019801280CD088
:100908004FF46D43CEF200034FF00061996002B0DE
:100918007047019201980128F2D14FF46053C4F254
:1009280002034FF4E042196CC4F2000241F0805017
:100938001864116841F4804010609A689A60996858
:1009480041F400409860996845F2084241F4A0508B
:10095800C0F2407298605A60196841F080721A605B
:10096800184601684FF460538A01C4F20203F8D5AF
:100978004FF47052C4F2020240F2056010609968A8
:1009880021F003029A60986840F0020199609A6821
:1009980002F00C000828FAD1B2E700BF4FF4605308
:1009A800C4F202039A6802F00C00042812D0082846
:1009B80015D04FF41051C0F2F4014FF46050C4F256
:1009C8000200184B8268C2F303101A5C21FA02F184
:1009D800196170474FF49051C0F27A01EDE75868F9
:1009E8005A6810F4800F586802F03F0114BF4FF4A2
:1009F80090534FF41053C0F388124FF4605014BF53
:100A0800C0F27A03C0F2F403C4F20200B3FBF1F3BC
:100A180003FB02F14268C2F30143581C4200B1FBD8
:100A2800F2F1CAE70000002000207047002070475C
:100A380001207047002070474FF0FF30704700BF1B
:100A480000207047064B186838B141186A46914231
:100A580094BF19604FF0FF30704702481860F4E700
:100A6800504A002024E2002070B5161E14DD0C4602
:100A78008D194FF48840C4F2000014F8011B09F0E6
:100A8800C1FA4FF48840C4F20000402109F07EFB0F
:100A98000028F6D0AC42ECD1304670BD10B44FF40B
:100AA800A844C4F20004228B02F002024FF4A843C7
:100AB80092B2C4F20003002AF5D11C88A2B242F413
:100AC80080741C809C8A4FF4A842E407C4F2000298
:100AD800F8D594231382948A04F002044FF4A843AF
:100AE800A4B2C4F20003002CF5D01A8B1882988A9D
:100AF80000F080004FF4A84280B2C4F2000200283F
:100B0800F5D01182918A01F004004FF4A84381B214
:100B1800C4F200030029F5D01A8890B240F400719D
:100B2800198010BC704700BF46F2B802C4F2020236
:100B380042F65041104BC0F2010110B5116018681F
:100B48001C69506043F60C41C4F20001916058687A
:100B58000421D0605161106840F001011160002249
:100B68005A609868012280F0010199601A7314B1E3
:100B780099685869A04710BD544A002008B502205A
:100B88009E21FFF78BFF4FF47053C4F200034FF41C
:100B980060629A8308BD00BF08B502200121FFF7F3
:100BA8007DFF4FF47053C4F2000300229A8308BDFE
:100BB800193010B5C4B221462020FFF76FFF21205D
:100BC8002146BDE81040FFF769BF00BF2DE9F04F8F
:100BD800DFF874E20746012087B000248846014602
:100BE800CEF80440CEF81040CEF80040CEF81440BD
:100BF800CEF8084016468EF80C401D4607F044FF14
:100C08000220012107F040FF0420012107F03CFFEA
:100C18000820012107F038FF01214FF4001007F0E8
:100C280033FF4FF4406B01214FF400104FF0100ACE
:100C380007F054FFC4F2020B01214FF4004007F003
:100C48004DFF4FF00209012358460DEB0A018DF8BC
:100C580014300193CDF810A08DF816408DF815903A
:100C68008DF8174008F02EF9019B8DF815904FF478
:100C780080604FF41072C4F202000DEB0A018DF887
:100C8800163004928DF814908DF8174008F01AF970
:100C98004FF4806006210422C4F2020008F0A4F98F
:100CA8004FF4806004220921C4F2020008F09CF984
:100CB8004FF400604FF4A452C4F202000DEB0A0195
:100CC80004928DF815908DF814908DF816408DF8D3
:100CD800174008F0F7F84FF4006007210622C4F225
:100CE800020008F081F94FF40060C4F202000A2102
:100CF800062208F079F94FF4006006220C21C4F2AC
:100D0800020008F071F92046C4F202000DEB0A0156
:100D1800CDF810A08DF815908DF814908DF8164028
:100D28008DF8174008F0CEF820460421C4F20200DE
:100D3800062208F059F9ABF81AA00394039844F670
:100D4800FE71884206DC00BF039C631C0393039C6E
:100D58008C42F8DD4FF44063C4F2020310221A8378
:100D680001214FF4001007F0FFFE00214FF400109E
:100D780007F0FAFE4FF4A843C4F200032A20D22257
:100D880048F23301988019819A832B221A8440F201
:100D980001421A8002200121FFF780FE0420AF21C2
:100DA800FFF77CFE05208121FFF778FE042106204D
:100DB800FFF774FEFF20FFF7FBFE02209E21FFF7DE
:100DC8006DFE0A200021FFF769FE0E200421FFF7BF
:100DD80065FE27200021FFF761FE1F200F21FFF786
:100DE8005DFE1A200A21FFF759FE1B200A21FFF792
:100DF80055FE4FF47053C4F200034FF46050C4F230
:100E08000200002199838268BF0122F4000347EAA7
:100E180008778360C0F88470016841F080620260DE
:100E280003681B01FCD546F400764FF47050C4F2F9
:100E3800000046EA0525ADB24FF460610584818360
:100E480007B0BDE8F08F00BF544A00204FF470513E
:100E5800C4F200010A8902F002024FF4705392B200
:100E6800C4F20003002AF5D080B29881704700BF11
:100E78004FF47053C4F2000380B29881704700BFEA
:100E880046F2B802C4F2020270B5136823F00104F6
:100E9800064614600846116811F00103FBD14FF4AF
:100EA80061450D4ACEF200054FF400414FF47054ED
:100EB8001373C4F200046960402185F82F13A188D8
:100EC80089B241F00201A1801661506193600EB1B0
:100ED8009168B04770BD00BF544A002046F2B8037D
:100EE800C4F2020310B4196821F001001A46186010
:100EF800146814F00103FBD10B484FF47051C4F28D
:100F0800000103738A8822F002024FF4614412043C
:100F1800CEF20004120C8A804FF40041C4F8841009
:100F2800036110BC704700BF544A00200E4B5A683A
:100F380010B50AB1002010BD4FF46142CEF2000294
:100F48004FF40044C2F8844058601960187B40B1DF
:100F58004FF46141CEF200014FF400434B60012091
:100F680010BDFFF7E1FDF3E7544A002038B5054608
:100F78000C4600E030BF28462146FFF7D7FF00287F
:100F8800F8D038BD4FF4C043C4F20203054AD9680B
:100F980041F00060D86053680BB1FFF7C5BD13730B
:100FA800704700BF544A0020704700BF704700BF19
:100FB800704700BF704700BF704700BF704700BF51
:100FC800704700BF704700BF704700BF704700BF41
:100FD800704700BF01207047704700BF704700BFCF
:100FE80010B500200A4905F021FF044668B9094BED
:100FF8001A684FF440600132C4F202004FF4805185
:101008001A6007F0E1FF204610BD4FF0FF3010BD19
:101018004CD90020484A00204FF44060C4F2020036
:101028004FF4804107F0D0BF08B54FF4FA7000F0D4
:10103800FBF8BDE80840FFF7D3BF00BF10B54FF479
:101048004064C4F202044FF48041204607F0BEFF1A
:1010580020464FF4805107F0B9FF44F64823C2F206
:10106800000300221A6010BD10B5002184B00446A8
:101078004FF0804008F058F9012100224FF08040DD
:1010880008F0A8FD022C28D0012C04BF42F6DF632B
:1010980002930023052201A94FF08040ADF80420F7
:1010A800ADF80C30ADF8063008F090F801214FF09B
:1010B800804008F07DFD01214FF0804008F00EF9D6
:1010C80001210A464FF0804008F084FD4FF080402F
:1010D800012108F029F904B010BD0B200290D8E7CF
:1010E800704700BFF0B50120002485B0C4F20204A7
:1010F800014607F0C9FC00264FF4D053022203270B
:1011080002A9204602938DF80C208DF80D708DF8F9
:101118000E608DF80F6007F0D5FE204609210A22DF
:1011280007F062FF20460B210A2207F05DFF0A2222
:1011380020460C2107F058FF01254FF4806302A9CF
:10114800204602938DF80E508DF80F508DF80D70D3
:1011580007F0B8FE0A210A46204607F045FF29464F
:101168004FF4804007F0C8FC8020294607F09AFC1D
:1011780031464FF0006007F01BFB4FF4A06007F00A
:10118800D5FA1C2101A88DF804108DF805608DF89A
:1011980006508DF8075007F0D3FA2846294607F07D
:1011A8009DFC05B0F0BD00BF10B54FF4C06082B023
:1011B80007F0BCFA012401A843238DF804308DF808
:1011C80005408DF806408DF8074007F0B9FA172159
:1011D800022201A88DF804108DF805408DF806202C
:1011E8008DF8074007F0ACFA02B010BD4FF400606C
:1011F800C4F2020011B1012107F0E8BE012107F095
:10120800E3BE00BF10B5074C034602202360FFF77A
:101218002BFF21680029FCD14FF08040BDE8104029
:1012280008F082B8704A002010B5074C0346012028
:101238002360FFF719FF21680029FCD14FF0804097
:10124800BDE8104008F070B8704A002030B54FF47F
:10125800006583B004200121C4F2020507F014FCE4
:10126800012400230222284669468DF805208DF8BE
:1012780006308DF8073000948DF8044007F022FE00
:101288002846214607F0A0FEC820FFF7CDFF03B08F
:1012980030BD00BF08B54FF08040012108F07CFC4C
:1012A80000B908BD01214FF0804008F081FC064BD1
:1012B800196819B11A68501E186008BD4FF08040AF
:1012C800BDE8084008F030B8704A00208885010859
:1012D80000000020480900204809002024E20020DE
:1012E80000F048BD08B100F0ABBD7047012910DD22
:1012F8000139002302E0013399420AD010F8012B8A
:10130800FF2AF8D1027802F0E002E02AF3D1184669
:1013180070474FF0FF30704718B1D0F8D037032B23
:1013280008D000230B604B608B60CB600B614B6176
:101338008B61704770B490F8D447D0F8B8670B4AFF
:10134800D0F8BC57D0F8C0070E6004EB440602EB97
:1013580046021026B2F904208C6105FB02F24D60AA
:10136800CE600A6188604B6170BC7047484D0108C7
:10137800A0B138B50D461146044600F0EBFA01302D
:1013880009D0D4F8D037032B05D120462946FFF7DA
:10139800C3FF002038BD6FF0050038BD6FF00400B2
:1013A800704700BF002800F029822DE9F04F87B070
:1013B8008946096802930746164600F0CBFAB0F151
:1013C8000008C0F2FE80D9F800104144C9F80010A6
:1013D800384600F0B5FBB0F1000EC0F24081D9F8F4
:1013E8000000346808EB0E017044641AC9F8000064
:1013F8003460D7F8B837002B48D1D7F8B037002B6E
:1014080047D10123C7F8B0373268012AA0EB0101A0
:10141800054620DD02F1FF3A002402E00134A2452E
:1014280019D02B46013593F800C0BCF1FF0FF5D158
:1014380093F801C00CF0E00CBCF1E00FEED1002CE9
:1014480009DB0D78FF2D00F0C1800334121B012A3F
:1014580003F10305DEDC4FF0FF33C7F8B437D7F8E4
:10146800C417D7F8C827D7F8BC3702FB01F203FB2B
:1014780002F2002A07DD029B002103EB420223F857
:10148800021B9342FBD16FF002009CE0D7F8B03703
:1014980043B1D7F8B447384600F050FA2044C7F8AB
:1014A800CC073468109B002B00F0BC80D7F8D837E5
:1014B800C7F8CC47002B70D1002C6EDDC7F8DC478D
:1014C8003368D9F800801B1B4444C9F800403360D6
:1014D800D7F8C437D7F8DC57002083424FEAC50550
:1014E800059070DD07F5FC6382460393B946D9F889
:1014F800BC37002B40F32081059CDDF80CB0002799
:1015080017E0AC4230DC0197CDF800A000F0F8FFFE
:10151800002807F10107C6EBC0068044C0F23D81F0
:10152800059CD9F8BC372644BB42A5EB060540F319
:1015380003812B46414605AA0197CDF800A04846ED
:1015480002F012FC059E5BF8043B8646C4EBCE0411
:101558003444F0442D1BBEF1000FA3EB040405AA8C
:10156800484641462346CCDAD9F8C817D9F8C427E3
:10157800D9F8BC3702FB01F203FB02F2002A07DDAF
:10158800029B002103EB420223F8021B9342FBD18A
:101598006FF0070007B0BDE8F08FD7F8C417D7F889
:1015A800C827D7F8BC3702FB01F203FB02F2002A76
:1015B80007DD029B002103EB420223F8021B934242
:1015C800FBD16FF0050007B0BDE8F08F93F801C0BC
:1015D8004D78AC457FF439AF91F802C09D788CEA1C
:1015E800050515F0FC0F7FF430AF1CF0020F18BF93
:1015F80003F1FF331C1A002CC7F8B447FFF62FAFCE
:10160800A044D7F8C027D7F8C417D7F8C837F0448C
:1016180002FB08F2D20003FB01F392FBF3F3C7F8D5
:10162800B83738E7D7F8CC37A34231DDD7F8C41735
:10163800D7F8C827D7F8BC3702FB01F203FB02F240
:10164800002A07DD029B109903EB420223F8021BD4
:101658009A42FBD14FF0FF3007B0BDE8F08FD7F8C2
:10166800C817D7F8C427D7F8BC3702FB01F203FB29
:1016780002F2002A07DD029B002103EB420223F855
:10168800021B9A42FBD16FF0060007B0BDE8F08F4D
:10169800D7F8DC17D7F8D82791421FDB891A07F14A
:1016A8001C08414440460CF0B3FFD7F8D807D7F8D8
:1016B800CC27D9F8001040440CF008FFD7F8CC1715
:1016C800D7F8D837D9F800200B44C7F8DC37336887
:1016D8000A445B1AC9F800203360F9E607F11C00D8
:1016E8001A460844D9F800100CF0F0FED7F8CC17C9
:1016F800D7F8DC37D9F800200B44C7F8DC37336853
:101708000A445B1AC9F800203360D7F8C417D7F821
:10171800C827D7F8BC3702FB01F103FB01F1002908
:1017280007DD029A109B02EB410122F8023B91422D
:10173800FBD16FF0010046E75146484600F082FBB6
:1017480000285EDBD9F8BC37002BC8BF002404DCB6
:101758003AE0D9F8BC37A34236DD2246514648461E
:1017680001F008FC002804F10104F2DAD9F8C817DE
:10177800D9F8C427D9F8BC3702FB01F203FB02F3FE
:10178800002B07DD029A002102EB430322F8021B1B
:101798009A42FBD16FF00A0015E7D9F8C817D9F8B3
:1017A800C427D9F8BC3702FB01F203FB02F2002A76
:1017B80007DD029B002103EB420223F8021B934240
:1017C800FBD16FF00800FEE6D9F8C82702FB0AF241
:1017D80003FB02F1029B484603EB410103F09EF92B
:1017E800002825DB039AD9F8C4370AF1010A083220
:1017F800534503923FF77BAE0020E4E66FF0040008
:101808007047D9F8C817D9F8C427D9F8BC3702FBEC
:1018180001F203FB02F3002B07DD029A002102EB21
:10182800430322F8021B9A42FBD16FF00900CAE673
:10183800D9F8C417D9F8C827D9F8BC3702FB01F280
:1018480003FB02F3002B07DD029A002102EB43039E
:1018580022F8021B9342FBD16FF00B00B3E600BFE6
:1018680000230260C1604360836070474268F0B53E
:10187800856801F01F01034602FA01F4C1F11F0057
:10188800691A22FA00F000295C604FEA500099605A
:1018980000DBF0BDDD68032DC1F1000622DC00226B
:1018A8005A60002D3CD01C6804EB050E01341C6006
:1018B80014F8017C3A43120274455A60F6D1C5F116
:1018C8000304E40002FA04F401F1200204FA06F623
:1018D80024FA02F2002401EBC501DC601043996090
:1018E8005E60F0BD1C682746621C1A6017F8022B60
:1018F8001F6012065A60677842EA0742E71C5A607E
:101908001F60A77842EA0722271D5A601F60E47803
:10191800043D2243203102FA06F6DD60CA40DDE7C5
:101928002E462A46D6E700BF10B404688368611AB9
:10193800C3EBC100801A5DF8044B704730B10368EF
:1019480023B15869003018BF012070474FF0FF30AD
:10195800704700BF002800F0E4800368002B00F007
:10196800E0800A78FF2A40F0DC802DE9F04F4A78C1
:1019780002F0E004E02C83B040F0CE80D208940757
:101988001ABF02F0010282F0010202221A704D7899
:10199800C5F34105C5F10409C3F804904E7806F073
:1019A800010686F001049C608F7800943F09DF608F
:1019B8008C78C4F381041C6191F802C0CCF3400612
:1019C8005E6191F802E001960EF0010EC3F818E08E
:1019D80091F803E04FEA9E1E83F81CE091F803801B
:1019E800C8F30118C3F8208091F80380C8F3C00831
:1019F800C3F8248091F80380C8F38008C3F82880CE
:101A080091F80380032C08F00308C3F82C8000F039
:101A18008380B9F1040F7FD00F2F7DD04FF0DE08FF
:101A280008FB02F84FF04A0BDFF804A10BFB04880F
:101A3800D044BEF1010FC3F8348006D04FF000083F
:101A4800BEF1030FC3F8208063D04FF0020A4FEABB
:101A5800420C0CEB0208C5F1030508EB040BC0F8B7
:101A6800BCA7DFF8D0A0C0F8D097002A08EB05097A
:101A780080F8D4272C4A5AF82B6032F91920C0F87C
:101A8800C0670CBF4FF0020A4FF0010AC0F8C4A7A4
:101A980092FBFAF2C0F8C82757B3C8EB0818C4EB92
:101AA800041444443C44C5EB0515BEF1030F0CBFB8
:101AB800E6460CF1010E1D4ADFF87C9032F914203D
:101AC80039F91E40009E45442F44DFF87080141BEE
:101AD80038F91720C2EB421502EB8502043C019D40
:101AE800A4EB46042C44D200C0F8CC47C0F8B82771
:101AF800009A2AB9009A1A63042003B0BDE8F08F4F
:101B080008794A7942EA002206201A6303B0BDE840
:101B1800F08F4FF0010A9AE74FF0FF3003B0BDE8AD
:101B2800F08F4FF0FF307047484D0108244C0108F2
:101B3800884901086C4E0108344D01085C4D0108C4
:101B4800002800F014812DE9F04F076887B0002FB6
:101B580000F00A81D0F804B0BBF1000F00F0048156
:101B68003E783B7F02918046002E00F09D80032B3B
:101B780014BF1123092302AD1A46082101932846F0
:101B88000023059203930493FFF770FE3B7FCBF885
:101B98000000032B14BF022101212846FFF766FE2F
:101BA800CBF80400D8F8C427002A75DDD8F8BC376C
:101BB800DA464FF00009002B68DD544600260C2158
:101BC8002846FFF753FE0921A0622846FFF74EFE7C
:101BD8000821E0622846FFF749FE3B782063002B86
:101BE80014BF092104212846FFF740FE0121606344
:101BF8002846FFF73BFEA063002800F085800221FD
:101C08002846FFF733FE0121E0632846FFF72EFE42
:101C1800052120642846FFF729FE0521606428462F
:101C2800FFF724FE0023E364A06403212846FFF79E
:101C38001DFE032120652846FFF718FE0321606575
:101C48002846FFF713FEE36BA065002B7FD1E26DFA
:101C5800E362A3626363C2F1140323663B78002B3B
:101C680070D00020606601212846FFF7FFFD0121A2
:101C7800A0662846FFF7FAFDE066D8F8BC370136BB
:101C8800B34204F148049ADCD8F8C42709F10109E1
:101C98004A450AF1900A8EDCDBF800300198C8F852
:101CA800D83707B0BDE8F08F032B02AD14BF20234F
:101CB8001123092128460193059303960496FFF7FB
:101CC800D5FD3B7FCBF80000032B14BF0321052172
:101CD8002846FFF7CBFDD8F8BC37CBF80400002B1B
:101CE8007FF760AF0BF1080404F1100901212846C1
:101CF800FFF7BCFD44F8040B4C45F7D1D8F8BC37C6
:101D08000136B342F0DC4DE7E06320640521284644
:101D1800FFF7ACFD052160642846FFF7A7FD052104
:101D2800A0642846FFF7A2FD0421E0642846FFF7D7
:101D38009DFD0321E0652846FFF798FD3B78206666
:101D4800002B8ED101212846FFF790FD8AE7022B50
:101D580003D00723E3650D237FE7236C002BF8D11D
:101D68000823E3650C2378E74FF0FF3099E74FF03D
:101D7800FF307047274A284B284970B402F68C2058
:101D8800136102F5FE6602F6280502F5176403F5ED
:101D9800527353619161166055609460D06002F28D
:101DA800EF73002102F6270203F8011F9A42FBD1C4
:101DB8001B4B002103F5A47203F8011F9A42FBD1C3
:101DC800184B002103F58E7203F8011F9A42FBD1CC
:101DD800154B1649002203F8012F9942FBD1144BE9
:101DE800002103F5527203F8011F9A42FBD1114BEF
:101DF800002103F5D95203F8011F9A42FBD10E4B7B
:101E08000E49002203F8012F9942FBD1014870BC0A
:101E1800704700BF744A00201067002078850020B2
:101E28009B520020E3530020FF5400200F6700203E
:101E38000F670020576A0020778500207BA70020C5
:101E4800704700BF002800F033812DE9F04FD0F82B
:101E580000A08FB0BAF1000F00F027814368079304
:101E6800002B00F0228183680893002B00F01D816D
:101E7800C568002D00F01981036906931A46002BE6
:101E880000F01381D0F8BC370A91002602F546729B
:101E9800B3420D960C96099230DD0A9A079B0B9572
:101EA80002EBC20803EB0818089BC2EB421703EBCE
:101EB8008707099B05F5905908F12808AB4609F1F1
:101EC800040945461C4680468DE8A0000294534606
:101ED800A9F104025846069900F0D4F949F8040F0C
:101EE800D8F8BC370136B34205F1480507F13E077B
:101EF80004F118040BF5106BE6DC0B9DDAF82000F2
:101F080000286DD041F20823EB58002B40F388805D
:101F180041F20C23EB58002B40F38280430800F079
:101F2800CA80C2070DD5069AD2F83033002B40F08C
:101F3800B080D2F84433DAF83420013332F9131080
:101F480008E041F2042205F59053A9581B6899420C
:101F5800B8BF19460CAC2846224602F0AFFADAF8A8
:101F68002000C30720D505F590539AF8002019687A
:101F78000A9E002A37D1079B039406EBC60203EB9F
:101F88000212C6EB4613D2F888200292089A401033
:101F980002EB8303099A0190009228463E33524689
:101FA80002F0C0FADAF82000D0B141F2042405F5B5
:101FB8009056285931680C9BB3FA83F341F2082EE6
:101FC800814241F20C27B8BF01465A1E0D9BB3FA55
:101FD80083F3013B45F80E20EB5131602951002075
:101FE8000FB0BDE8F08F079B049406EBC60203EB25
:101FF8000212089CD2F8882003922246F832C6EBD7
:1020080046134010019204EB8303099A0290009250
:1020180028463E33524602F015FCDAF82000C3E7A2
:1020280005F590531C68002C16DD04F18044013C32
:10203800224905EB84042B1F6FF0404602E0A342BF
:10204800196009D053F8042F8A42F8DBB2F1804FA7
:10205800A8BF1E60A342F5D141F20423EB58002B20
:102068007FF75CAF03F23F2305EB8304134905F6C2
:10207800FC036FF0404603E01960A3423FF44EAF03
:1020880053F8042F8A42F7DBB2F1804FA8BF1E60D5
:10209800F3E7069BD3F84023DAF8343003EB420326
:1020A800B3F9301001EB410154E74FF0FF3097E7E7
:1020B8004FF0FF30704701200CAC54E7010000C01E
:1020C8002DE9F04FDFF8B0814FEAA30C03F00304C9
:1020D80008EB8403BCF11F0F89B008EB841BA8BF71
:1020E8004FF01F0CBCF11B0FD3F80031DBF8044094
:1020F8000193D8BF0CF10305DBF80C30CDF808B01C
:102108000646DBF80800D4BF25EAE5751F2540FA26
:1021180005F72C412B4100200439059406970793B5
:102128000490E3460EE008AC04EB850555F8104C26
:10213800002B40EA0400B8BF6442013A41F8044F5A
:1021480000F0848056F8043B23F00045032DEADDB7
:102158000F2D0BDC029CBBF1000F54F82540BABFD1
:10216800CBF10005AC4044FA0BF4E1E73F2D0CDC61
:1021780008EB8505019CD5F8D05085FB0474ABF1BC
:102188000305002D59DB2C41D2E76C04B4F1006F34
:10219800B6BF6C0500250425B4F1005F009503DA8D
:1021A800009D0235A4000095B4F1804F03DA009D2C
:1021B800013564000095284F284DDFF8C0C0DFF8CE
:1021C800C090BC42264FD8BF3D46264F0395D8BF86
:1021D800BA46254D254FCCBFAA46BE4605F1F9554E
:1021E800234F05F5CE2505F29B15D8BF3D46214F57
:1021F800CABFAE46B9466546A44689FB0C7C654411
:10220800A14685FB09C9CE4425468EFB05C5AA44CF
:102218008AFB0454009D08EB8507039D2C44D7F8DE
:10222800D05184FB05E5ED00019C85FB04E4D7F85B
:10223800F051C5EB0B05002DA5DA6D426FF0004794
:1022480047FA05FE744504DD3C4671E709B0BDE870
:10225800F08FAC406CE700BF9979825AB477F5FEED
:10226800591858FF8D496C23F0CEC2271BAA57591D
:1022780028482EB0A9BDA029904E0108A4F633D352
:10228800632185102DE9F04F91B01A9C069064697E
:102298000791022C05920A9300F0F9800D2303930D
:1022A8004FF016091A9B0A9A1B6C116A1A9A013385
:1022B8005B00002001934B0892680D9000D1023218
:1022C800C2F1D20300931B9BCDF810904FF0000A87
:1022D8005F1EDFF8288202975546D346DDF828901E
:1022E80002E0049BB3422EDDD9F8342002991A9BF0
:1022F80032F91540D3F83CE011F8013F029102EBA6
:1023080045020699B2F9022001EB8B01141B6E1CE1
:102318000846224608EB060CBEF1000F01D01CF857
:1023280001EC019F7344BE46009F0EFB0373FFF749
:10233800C7FEA3444AEA000A00B10D95059B1B6835
:102348009B453546CDDB1C9A0D9B536100231360DA
:10235800D360936053601361039B0B2B6DDC03996F
:102368000D914B005A180E910F911B99CDF808B09A
:1023780017328A1804921A9A24320B9250460A9AF3
:102388000299526BDDF82CB0DDF81C80DDF810A046
:102398001344069AB3F93060B3F92E30F61A039B4A
:1023A80002EB81040133A1460894B5000993002784
:1023B800044600995BF8043F1AF8012B01EBC303AC
:1023C8000199484601FB023341463246FFF778FE41
:1023D800A9440443A84418B10DAA039B42F8273026
:1023E8000137032FE5D1029A06EB46031A44002E63
:1023F80020460292089C12DD079A02EBC606154495
:102408003146131F53F8042F226055F8042B6260DD
:1024180056F8042BA260A94204F10C04F2D1059BE2
:10242800029A1B689A422FDA099B049A0393033293
:102438000D2B049207D05B00A1E7BAFA8AF00138A5
:1024480011B0BDE8F08FDDF808B08246059B0E9903
:10245800C3F800B01A9B1C9C98690D9B0F9A636087
:1024680000280CBF012002208B42B8BF0B469342C4
:10247800B8BF13462060BAFA8AF00138A160236118
:10248800E26011B0BDE8F08F93468246DEE71A9B02
:102498009B69C3B91A9A106C0A9A116A1A9A013080
:1024A800400049109268019019D01C9903939B46EB
:1024B8000B604B61CB608B604B600B61C2F1D20348
:1024C8000093DA464BE70A9B1B78002B4FF0030377
:1024D80014BF4FF006094FF008090393E2E61C9B6E
:1024E800039119605961D960996059601961C2F105
:1024F800D0038B4600938A4631E700BFA0500108FD
:102508002DE9F04F9BB013910A920393002800F035
:10251800D0800168002900F0CC8042680B921446F4
:10252800002A00F0C6801D468368002B00F0C18099
:10253800C2681092002A00F0BC80002DC0F2B98059
:10254800249B249A2598DB0011931344259AD200E2
:102558001B010F92024403EBC2022244936B002B2F
:1025680040F08D82249A119B259813440F9A1B01E1
:10257800024403EBC2030B9A13444A6BD96D1B6EDA
:1025880001310B44013332F9116032F913000F9B0A
:10259800259A0B9D109F9918249A119B1344CC00DF
:1025A8001B01E2182A44259DD26A5200B2F5107F19
:1025B800A8BF4FF4107207EB850505F590571492E4
:1025C80015461AAA089204F14402089C3D60A842E4
:1025D80015974FF00007A8BF284644F8107DAE4273
:1025E800A8BF2E46AE4619950B9D08941A44109C18
:1025F8000A9B1890AA1804EB012107921B68139AEA
:102608000D911796069705920D9A02EB8705069A83
:10261800F41B0132002C069240F39082039A002AA0
:1026280047DB079AB948116800EBC1065A4212F015
:1026380007023379019341D0059F3E78C2F1200308
:1026480006FA03F33E46019F0136002F3BD13B4675
:102658002A46002145F8231002339C42516002F1BA
:102668000802F6DC0A460A98039C0368D118A21AE5
:10267800079C039204340794059C089A01F0070309
:1026880004EBE101059106990360043203290892DD
:1026980000F0428117685668B6E7DDF808B0039B7A
:1026A800C9EB02025A449A1A002A02DB039B9A4297
:1026B800D9DD4FF0FF301BB0BDE8F08F019F059EBC
:1026C8001346002FC3D0039FDFF844E2DFF844C26B
:1026D8005EF821E0C2EB070B019F012F0CEB4E0ABD
:1026E80000F03482019F023F012FE2D850F83110E8
:1026F80009910846471CC0F120000E9058465146E3
:10270800D3468246BAF10F0F0C974FF000094BDD04
:1027180037787078C2F1180CC2F1100E07FA0CF76E
:1027280000FA0EF03843AAF1100A023603431032B9
:10273800CDF808A0049606E0121A0A2A03FA00F354
:1027480001EB47012ADD088800F00F00C0F12007DF
:1027580023FA07F7013731F817705FEA173EEBD015
:10276800C7F30320C7F303170F2FCEEB020203FAB8
:102778000EF3014641D0002F42D10F284AD000293C
:102788004CD14A4595DB2846023C002C40F8087B92
:10279800696082DD0A2A05465946D4DCDDF808A0BE
:1027A800049EBAF10F0FB3DC0AEB0200002880DDAB
:1027B800BAF1000F11DD3778C2F1180E07FA0EF7DB
:1027C800BAF1080F43EA070340F3BE817778C2F1F4
:1027D800100207FA02F213430236421E4FF0004776
:1027E80047FA02F24FF0000A13404FF00B0900F1CC
:1027F8000B02CDF808A00496A5E7019E032E13D07E
:1028080003F0004E0F2802F1FF324EEA07074FEAA5
:102818004303B4D10199032946D0014603F000408F
:10282800013A01435B00ACE70C9E002818BF013653
:10283800B246029E9719BA453FF73BAF52452BDA8D
:10284800D643049F129606EB0A0807EBD8083E46C3
:1028580008F10108C2F1180CBE461EF8017B07FA00
:102868000CF7F04543EA0703ACF1080CF5D1B44680
:10287800129E56444FEAD60A029E0AF1010EA6F1AC
:1028880008076646764408320496B7EBCA0602EB98
:10289800CA02029600F13E810E9E23FA06F7099EAF
:1028A8000F37921BB34066E702990C9E51188E426F
:1028B8003FF7FFAE964240F3CA810999049EC2EBE6
:1028C800010C4FEADC0C0CF1010EB644C2F1180001
:1028D80016F8011B8140B64543EA0103A0F1080040
:1028E800F6D1029908390832B1EBCC0102EBCC02DF
:1028F800029100F119810E990998CDF810E023FA98
:1029080001F1121A0F31834039E700BF185101084D
:1029180018520108985201080D9A149902EB810483
:10292800039A002A40F396812499119A25980A441B
:102938000F991201014402EBC1020B99C6481144D8
:102948005B42CA6EC54950F822A051F8220013F024
:10295800070140F0AE80059B01930A46149BDFF8FF
:102968000093C3F50F7E039B4FF0000C0EF1010E90
:10297800C0F120086746C1EB030B774556DABBF177
:102988000F0F40F39F80019806784378C1F1100536
:10299800C1F1180006FA00F0AB4003430198023079
:1029A800ABF1100B01901A43103104F110000FE045
:1029B8000437774540F8084C40F8106C40F80C5C38
:1029C80040F8043C0446D8DA092900F11000D4DDA7
:1029D80022FA08F3534419F803301C09C3F3C0065C
:1029E800091BA2402EB102F00046013946F001064B
:1029F8005200C3F380052DB102F00045013945F0BE
:102A080001055200C3F340042CB102F0004401391F
:102A180044F00104520013F0010305D002F0004312
:102A2800013943F0010352008C45C1DD159A136842
:102A38003B44B3F5107F136011DA25990F9A10986B
:102A48000A4403EB821300EB830300EB0222043BEE
:102A580002F6FC02002143F8041F9A42FBD10A9AAD
:102A68000399136819440B46059901EBE300139980
:102A780003F00703401A13601BB0BDE8F08FD36B57
:102A8800022B7FF46FAD136C002B40F0EB80D26DFE
:102A9800496B0132A3F1AA3383FB0203A3EBE27370
:102AA80001EB43034FF41070B3F92E6006EB4606B2
:102AB8006DE5059D2A78C1F120039A402B46013324
:102AC80001934BE70BEB0103002BAFDDBBF1000FCC
:102AD80013DD01980078C1F11805A840BBF1080F73
:102AE80042EA000240F3AD80019D6878C1F110010F
:102AF80000FA01F10A43A91C0191591E4FF0004048
:102B080040FA01F10A404FF00A0C03F10A014FF0B4
:102B1800000B4AE73244571E4FF0004646FA07F7C3
:102B280000263B400296B7E60A44511E4FF000408B
:102B380040FA01F10B4000210291DCE6039B0022E0
:102B48009A427FF790ADB4E5013646E63CF81E00A0
:102B580000F00F00C0F1200000212F46BBF10F0F3D
:102B680042DD96F800C096F801E0C2F11808C2F1FB
:102B780010050CFA08FC0EFA05F54CEA0505ABF150
:102B8800100B02362B43103207F1080EB0461BE03B
:102B980037435B00013AC5F3032503F0004C1DB130
:102BA8004CEA05055B00013A8A42A4F10204F446A6
:102BB800FFF67FAD002C4EF8087C4EF8045C0EF151
:102BC800080E36DD0A2A39DD23FA00F50AEB450539
:102BD8006D882F0BBB40C5F30316D21B03F00047CB
:102BE800002ED5D13746D6E702EB0B0100297FF737
:102BF80060ADBBF1000F10DD3578C2F1180E05FA93
:102C08000EF5BBF1080F43EA05031EDD7578C2F126
:102C1800100205FA02F2134302364A1E4FF000452D
:102C280045FA02F213404FF0000B01F10B020B21A1
:102C3800AAE7521A039B5A449A1A35E5674646464C
:102C48008CE701990131019157E70136E5E7DDF895
:102C580010E050E60027E9E6C0500108B850010826
:102C6800C85001080B7893B9249A119B25981344EE
:102C78000F9A1B01024403EBC2030B9A13444A6BDD
:102C8800DB6D01334FF4107032F913607FE44A6B47
:102C9800B2F93630B2F93410B2F90C605B1A06EBAF
:102CA80043064FF4107072E4022A2DE9F043484BB2
:102CB8001FD002EBC20C03EB0C1C0CF148040CF106
:102CC8008C0E04380CF16C0C01F1440750F8043FE9
:102CD8005EF8045954F8046B1A4686FB028241F8E0
:102CE800042B85FB0323A44547F80439EED1BDE83E
:102CF800F0838268D3F838E114468EFB0424826995
:102D0800D3F8205185FB026222440A604268D3F856
:102D18003C61154686FB0525C269D3F8244184FB2E
:102D280002722A444A600268D3F84051174685FB6C
:102D38000727026AD3F8284184FB02C23A448A6012
:102D48000268D3F84441944684FB0C2C026AD3F8F9
:102D58002C7187FB02826244CA604268D3F848C17A
:102D680090468CFB0828C269D3F8307187FB029221
:102D780042440A618268D3F84C71904687FB082860
:102D88008269D3F8343183FB029242444A61436931
:102D98008EFB03238B61036986FB0323CB61C36826
:102DA80085FB03230B62C36884FB03234B6203691F
:102DB8008CFB03238B62426987FB02320023CA62C1
:102DC8004B640B64CB638B634B630B63BDE8F0838D
:102DD800BC7A01082DE9F0478646ABBB12F001002A
:102DE8007AD0DEF88017DEF88028DEF88001DEF879
:102DF8008073DEF88064DEF88055DEF88046C0F126
:102E0800000CC1F10009DEF88002CEF880C1514201
:102E1800DEF88020CEF88097C0F100087F42764225
:102E28006D42644252421846CEF88082CEF88073D2
:102E3800CEF88064CEF88055CEF88046CEF880185B
:102E4800CEF88020BDE8F08712F0010046D1C3F12A
:102E58001F060127B740013F0EF180020EF5106CE6
:102E680052F8804CE51744FA06F8454518BF85EA3C
:102E7800070404FA03F542F8805CDEF880404FEA64
:102E8800E47944FA06FAD14518BF87EA09049C4058
:102E98004FEAE578CEF880404FEAE47985EA0805FC
:102EA800C8EB050884EA09040D68C9EB040444EA80
:102EB800080445FA06F94FEAE578C84518BF87EAD5
:102EC80008050EF5807E9D40E64502F5807240EAD1
:102ED800040041F8045BC3D1BDE8F087C3F11F05C6
:102EE8000126AE40013E0EF1800201F124070020C8
:102EF80052F8804C4FEAE47C44FA05F8C44518BF00
:102F08008CEA060404FA03FC42F880CCDEF8804020
:102F180064424FEAE47944FA05FAD14518BF86EAD3
:102F280009044FEAEC789C40CEF880404FEAE479F7
:102F38008CEA080CC8EB0C0C84EA0904D1F8008070
:102F4800C9EB040444EA0C0448FA05F94FEAE87CA2
:102F5800CC4518BF86EA0C08204308FA03F441F868
:102F6800044BB94202F580720EF5807EC0D1BDE8EF
:102F7800F08700BF2DE9F04FC9B00D910A920028E3
:102F880000F0E8860368002B00F0E48644681C948F
:102F98002546002C00F0DE86C4680E942646002CD8
:102FA80000F0D88640690C90002800F0D3861746B8
:102FB8001A785B6BDFF828E30846C900002A1E91DF
:102FC80001EB00024FEAC7010C461B914FEA0212BF
:102FD8000CBF08210621E01902EBC00233F91130B9
:102FE8002A448EFB0315D917D36BC1EBA50109B28F
:102FF800022B199100F0998607F5906340F226227A
:1030080056F82330934240F313850E9B03EB0023BD
:10301800139340F236230F9320230B931F22AF4BB9
:10302800D9680091196901915969029199690391C7
:10303800D9690491196A0591596AD86BD3F800E0E7
:10304800D3F804A0D3F808B00691DF6A996A1E6B1A
:103058005D6B9C6B139B079102EBC20203EBC202F0
:10306800099208905A6CD3F848C011468EFB01812A
:10307800E0468AFB0898C8EB0101490059648EFBB9
:103088000C1C8AFB02120CEB02011A6CD3F84CC020
:103098004900996411468BFB0181E046009880FB4A
:1030A8000898C8EB0101490019648BFB0C1C80FBD4
:1030B80002120CEB0201DA6BD3F850C001984900F8
:1030C800D964114680FB0181E046029880FB08988C
:1030D800C8EB01014900D963019880FB0C1C0298D8
:1030E80080FB02120CEB02019A6BD3F854C00398D0
:1030F80049001965114680FB0181E046049880FB70
:103108000898C8EB010149009963039880FB0C1CDF
:10311800049880FB02120CEB02015A6BD3F858C0DA
:10312800059849005965114680FB0181E0460698DB
:1031380080FB0898C8EB010149005963059880FB9A
:103148000C1C069880FB02120CEB02011A6BD3F8D8
:103158005CC0079849009965114680FB0181E046EB
:1031680087FB0898C8EB01014900196380FB0C1C18
:1031780087FB02120CEB0201DA6AD3F860C049003F
:10318800D965114686FB0181E04685FB0898C8EBA6
:1031980001014900D96286FB0C1C85FB02120CEB6D
:1031A80002019A6AD3F864C049001966114684FB83
:1031B8000181E046089880FB0898C8EB01014900A6
:1031C800996284FB0C1C80FB0212624452005A660E
:1031D800099A48339A427FF445AF0D9A1E9B0A9983
:1031E80013441B9A1B010A4403EBC2031C9A1344A1
:1031F8001D6C0A9B0E9C219399000C4404F5905673
:10320800A0460C9C33680D9A1E9F229261180C46AA
:103218000F9933481D949942B8BF1946BA1813013B
:103228000F46219A1B993760114404F5D85C07F1C1
:103238001102002D41F2082E199CCDF880C008BF5C
:10324800002480FB02C0D2171994C2EBA00258F8E0
:103258000E400C9D149403EBC1031D9C0D9241F686
:1032680008371C9AE7590F9741F61036283305EBB3
:10327800C115D318A7590A93209E109705F59053A6
:103288000C9D3668189605EB01220E931F920B9938
:103298000029A64640F334852433149C0493139BD9
:1032A8000092C4F1070100203C33062C12910593CB
:1032B800C8BF014636AB0C901191039002930A9A4D
:1032C80004999369526908922439079153B1199B5B
:1032D80003998B42C8BF0022089203E02C790108A9
:1032E800398EE3380F9B109A03998A42C8BF00238E
:1032F8000993149B062B00F349840598049EDDF876
:1033080008C0DDF8489000252B460DF1B40EA0F159
:10331800480837468468416856F8042D44FA09F489
:10332800E31A41FA09F108385D1B42FA09F2CB1A8F
:1033380040454CF8045D47F8042D4EF8043DE9D1AA
:10334800269D289B2C98259F249CDDF8A490DDF8C9
:10335800AC802A99DDF89CB0C3EB050AC0EB0A0AD9
:103368002B4428442D9D641007EB090607EB08023F
:103378006D10C1EB040E0694B11A0195864C84FBBE
:103388000B5BC9EB0709C8EB090984FB0959834C96
:103398001F4684FB0757824C054684FB05C57F4CB6
:1033A800C01A84FB00C07E4C84FB03C304F1705434
:1033B80004F54C248C4604F2CB2484FB0C8C794C09
:1033C80084FB0282A4F12F54A4F5EA24E93C84FB8F
:1033D8000686744C84FB01815B00C3EB4003069CAA
:1033E8002A986D0004EB600452004FEA4B0005EB8D
:1033F800470702EB4C02490004EB000C241AC1EB0E
:1034080046060CEB0708F9182744BF1A4FEA490982
:1034180006970EEB6A07CAEB0E0A07EB090EC9EB13
:1034280007072B97069F2F982E9DDDF8C4B02C9781
:103438009044329FCDF890800CEB030904EB03080D
:10344800B21A359BCDF894E0C1EB0C0C641AA41A9F
:1034580008EB0601624405EB070ECBEB0008349F2E
:10346800269129923399279400EB0B02C3EB0808A5
:103478001844019BCDF8A0A0C6EB0906EF192A96BF
:10348800C1EB030CC7EB0E063099434C84FB0131AA
:10349800329C2D1B349CC4EB050B3F4C84FB0B3B2F
:1034A8003E4D134685FB03433D4D824685FB0A4A44
:1034B8003A4C851A84FB0505394C84FB020204F159
:1034C800705404F54C24B14604F2CB2484FB09095A
:1034D800344C84FB0707A4F12F54A4F5EA24E93CF3
:1034E80084FB0E0E2F4C84FB06064FEA4A0404EBBD
:1034F80043043398019B5200C2EB450203EB60057D
:103508004B0070007900EE18EB1AA51801EB490181
:10351800C0EB4E0006EB040A03EB02093244761BAB
:103528005D1B23444FEA4B0E471A0CEB680BC8EBA4
:103538000C0CC1EB0308099BCDF8C4C00AEB0104CD
:1035480081440BEB0E0AED1BCEEB0B0E3E44121A18
:103558002D94CDF8B8A0CDF8D0E0CDF8BC9030953A
:1035680032963392CDF8D480002B40F0BA82089B73
:10357800002B40F0B6820C4D009C0C48069ADDF8F2
:103588001CE01F463E46434605F1600A0DF1D4098A
:103598000DF1B008A44611E0A1EBD96E8BBE0D6207
:1035A8007E1A3A16322E0E7EC47301085CEB270B86
:1035B8005AF8040D59F8043D58F8042D80FB0313FC
:1035C80092109918DEF800004EF8041B9B1AC0F1FF
:1035D800000B55F8081CC3EB0B0B8BFB012155F8AE
:1035E800042C03EB81038BFB0212C0EB8202D11780
:1035F8004FEAE37B82EA0100411A83EA0B00E351B8
:10360800CBEB0000803740EA0103B7F5906FCCF8A8
:10361800802805F10805ACF1800C46EA0306C7D1FD
:10362800039D009C119B07992A462046FFF7D2FB71
:10363800049A24320492059A483205920C9A30432F
:1036480002430C92224604322B4600920B9A013315
:103658009A4203937FF433AE02EBC203139A02EB50
:10366800C30213920E9A02EB83030E930D9B0B9ADF
:1036780019469142134640F34D8323921F9ADDF871
:103688004CA002EB830311930E9B0A9336AB029373
:10369800149BC3F107051A950F9B109A0B998A4240
:1036A800C8BF00239B46149B062B00F383820A9B0A
:1036B8001A9C15941A46243250460AF104011392B2
:1036C800154651F8042C224141F8042C4268224145
:1036D800426053F8042B2241AB4201F1080100F18A
:1036E800080043F8042CECD1DAF83C70DAF8302002
:1036F800DAF82410DAF81800DAF80C30DAF80040B2
:10370800C64DD21B891A401A1B1AC91BC3EB040CDD
:103718005B1A4FEA6C0C5B1085FB00400CEB6209EE
:10372800400000EB0908C2EB0C0CC0EB090985FB53
:103738000121490003EB67068D19B94880FB05256F
:10374800B848DA1BAD0080FB0232761A9200B649FF
:1037580081FB0636DAF840E0DAF83430DAF8280087
:10376800DAF81C40DAF81010CEEB03030CEB020772
:10377800C01AC2EB0C02241A2892DAF80420259702
:10378800091BB600C1EB020C09EB0602C6EB0906E1
:10379800049608EB05060596CEEB0000C5EB080974
:1037A800059F049D2497091A4FEA6C064910069252
:1037B80026922795CDF8A490984F87FB042406EB12
:1037C8006308640004EB080CC4EB0807F61A934C72
:1037D80084FB0030400001EB6E0800EB0805904CBC
:1037E80084FB0535CEEB010EAD008E4981FB0E3E04
:1037F8008D49C0EB08084FEA8E0381FB0828DAF8E8
:1038080044E0DAF83840DAF82C10DAF82000DAF870
:103818001420CEEB0404091B401ACEEB01010091E1
:10382800F11801942B91DAF808400099121A4FEA1E
:103838008808A41A521A0CEB0501F31A169107EB23
:103848000806C8EB07080F46C5EB0C0108912F9135
:103858002E932C96CDF8B480641052102A976F4995
:1038680081FB0030019E009904EB6603400000EBE9
:10387800030C1F1AA41B694880FB0131490002EBA5
:103888006E03C818664E86FB0050664ECEEB0202E9
:10389800800086FB02525B1A19464FEA820E624E7E
:1038A80086FB01318B000CEB0001FD185A46FB1A10
:1038B8001291DDF808B03393129B309304EB0E0697
:1038C8000023CEEB0404C0EB0C0759460A98349445
:1038D80032951C46019331963597FFF7E5F924A9EF
:1038E8004B46CDF82480514ADDF844E0049DDDF8CC
:1038F8001880DDF81490CDF85CA0009103948A46F6
:10390800DBF80060B000CEF80000DBF80C404FEAAE
:10391800840C4FEAEC74C617CEF880C18CEA040711
:10392800704029460597D2F82051049085FB010183
:10393800DBF8180001EB8005E81785EA0001CEF8EE
:1039480000530691D2F82C118C468CFB0313DBF83C
:10395800241003EB8103D917CEF880344B40C446BA
:103968000793D2F8387187FB0C8C099FD2F8203165
:1039780083FB0787DBF83030674407EB8307CEF813
:1039880000764FEAE778CC4687EA0807D2F8443150
:1039980083FB0C9CDDF82090D2F82C3183FB09596D
:1039A800049B9E1B059B1C1BDBF83C30CC440CEB9A
:1039B80083052643079B069CCEF880575B1A201A7E
:1039C80000994FEAE57906431E430431039B0091B1
:1039D800C8EB070785EA090C01993743C9EB0C0CBA
:1039E800013347EA0C073943032B039302F104021E
:1039F800AAF1040A0BF1040B0EF1800E01913BD0E1
:103A08000098DAF81430416A0991DAF82C10C56880
:103A1800DAF80880D0F80090089171E7A1EBD96E28
:103A28001D75A37B9A79825A83FB2021BC7A0108F1
:103A380007338EFB0324DB17C3EBA40303EBC30795
:103A48001A467F0001330B9307F108030F931B9B62
:103A58000A9959180E9B002A03EB012313933FF789
:103A6800DEAA0D9A1E9B13441B011C9A03EBC1038B
:103A780013441D6CFFF7BDBB2B992C9A169B0A9C0F
:103A8800DDF85CA013989B10891092102360616088
:103A9800A26004F10C0330A9129A01E051F8042F36
:103AA800921043F8042B9842F8D10B9D119C159B5A
:103AB8000A992A462046FFF78DF9019A02431046D3
:103AC8000C9A02430C92224604322B4611920D9A0C
:103AD80001339A420B930AF1480A71D0139B0A9357
:103AE800DAE5079C099A0299DFF878A22046FFF7E1
:103AF800DBF8089A994B9A4802EBC20703EB071EBA
:103B0800AEF1040900264146CDF80490069A0EF15C
:103B1800480E35460DF590782CAFA14603E05AF8CB
:103B2800040D796A3A68043F80FB013190100B1844
:103B3800019A49F8043B52F8043F0192411A81FB6B
:103B48000323029A5EF8040D52F8252013449B00C3
:103B580081FB002058F8041D009C421892004FEA8F
:103B6800C51CD117D81744F80C3082EA010B434022
:103B7800A4EBC51CC1EB0B011B1A01351943092D18
:103B8800CCF8802846EA0106C9D149E50598029D86
:103B980000242146A0F1480682684368511A0C1B8C
:103BA80045F8044D0838591AB04245F8241CF3D199
:103BB800FFF7C6BB002315930A9B2433139393E5A1
:103BC8001346239A0D9E9B1A0E9A03EBC30302EB2E
:103BD80083030E93189B1A46B24240F3A3801F9B9F
:103BE800019603EB860300930C9E36AB029349AD16
:103BF80000240F9B019F1099DDF838A01A46B9429E
:103C0800C8BF002250460299FFF74EF8009847F3C4
:103C1800000907F00108AAF1040C37AF4FF0000EB5
:103C280057F8042C9200026057F8083B89EA83038E
:103C38004344D9174FEAE27B83EA010AC1EB0A0A37
:103C480082EA0B01CBEB01011A4341EA0A01AF42B8
:103C5800C0F880304EEA020E4CF8044F00F5807030
:103C680046EA0106DCD10D9B019A1946BEF1000F08
:103C780018BF114613460E9A0D9124320E92009ADF
:103C880004320092189A01339A420193B1D10C96EA
:103C9800189B1F2B10DC1F9B18981A4602EB8001FB
:103CA80000220023CA508033B3F5106FFAD10130D7
:103CB800202801F10401F4D1229A1E9B2199209811
:103CC8001D9F13441B9A1B010A4403EBC2031C9A51
:103CD8001A441346064641F6083441F61831DD6B9E
:103CE8000D980C9BB3FA83F341F61032013B306018
:103CF8003D517B50199BBB50002049B0BDE8F08F67
:103D080000230B930C930D9B0B9A19469142134673
:103D18003FF7B3AC0B9B0D93189B0D9E1A46B2420E
:103D28003FF75DAF0D9B1893B2E7156C4DB119992C
:103D38000B914A1E02EBC2077F0007F108030F939D
:103D480085E60E9B0B9503EB0023139308230F9333
:103D5800FFF74FBA4FF0FF30CFE700BFBC7A01083A
:103D68005CEB270B247401082DE9F04F97B0DDF8C0
:103D78008490002800F087830468002C00F0838377
:103D880045680095002D00F07E83D0F808A0BAF1B0
:103D9800000F00F07883156807902B44DD1D48BF9D
:103DA80003F10E051646069205910A460AA8E9107F
:103DB800FDF756FD3168002940F06A812378002B11
:103DC80040F09D80209B209ADB00019313444FEA2A
:103DD800C90202921B014A4403EBC203009A13442E
:103DE800C04A596BD86B12F8115002EB41040228F3
:103DF800647800F04082209B002B00F079814FEA24
:103E080009130833009AD758D618002F00F0A88253
:103E18004FEA4913C9EB03010493209B209A5B01E5
:103E280049009A1A01EB82020393013A4B1E0531AD
:103E380052445344514413F8010F02F8010F8B42C6
:103E4800F9D17368002B00F0A582049B2098039A8F
:103E5800C9EB030149008B1D121A03EB82020B31D7
:103E6800013A0AEB01005244534413F8011B02F8CB
:103E7800011F8342F9D1B368002B00F0A382049B91
:103E88002098039AC9EB0301490001F10B03121AA8
:103E980003EB82021031013A0AEB01005244534409
:103EA80013F8011B02F8011F8342F9D1F368002BB4
:103EB80000F09E82049B2098039AC9EB03014900F5
:103EC80001F11003121A03EB82021531013A0AEBD1
:103ED80001005244534413F8011B02F8011F8342A6
:103EE800F9D1209A039B9B1A049A9B00C9EB020202
:103EF80003EB4203534400225A759A75A6E0209BAF
:103F0800209A206ADB00019313444FEAC902029207
:103F18001B014A4403EBC203009A134410F001004A
:103F28005B6B03D0B9F1010F00F01881B3F5C87FBE
:103F380080F2B2806C491A1181FB0241DC17C4EB94
:103F4800610404EB8401521A4FF00008C3F38101A5
:103F580003F003030F920E941091119342464546C5
:103F68002099019B0B4402991B01494403EBC101B1
:103F7800009B1944CB6B022B00F01D81002605EB3A
:103F880045055849354401EB85010DF1380B91F889
:103F9800205091F82160129591F8225091F8231041
:103FA80013961495159118B1B9F1010F00F0ED8031
:103FB80012AE20980199014402980901484401EB86
:103FC800C00100980144022B4A6600F0FA80209B49
:103FD800209ACDF884905B0103939B1A4FEA49120B
:103FE80004929B00C9EB020203EB42030893013BD6
:103FF80009930027B04658F8046B002E11DD089B82
:10400800099A3B44D519013B35440AEB0309554449
:1040180021460AA8FDF72AFC09F8010FA945F7D19E
:10402800374411AB9B4502D05BF8044FE3E7209A75
:10403800039BDDF884909B1A049A9B00C9EB02024B
:1040480003EB4203534400229A755A752099019B49
:10405800029A069C0B441B014A4403EBC202009BD4
:1040680013441A4609EB410303F5FC730799926A56
:1040780041F823200AA805992268FDF755FC236812
:10408800184400F007032360C01017B0BDE8F08F94
:104098000AA8FDF7EBFB91E6B3F5FA7F48DB209918
:1040A800019A124C0A441101029AA3F5FA734A4480
:1040B80001EBC20284FB031400990A44A4EBE374E5
:1040C80004EB4405116C0E9400225B1B0F931192B4
:1040D8001092002900F0B581904610930F940122A8
:1040E80002253DE7287401086766666656555555EA
:1040F800C9EB4916760006F1FF3806F10A07D044E5
:10410800574429460AA8FDF7B1FB08F8010FB8453E
:10411800F7D106F10B0706F115055744554421461A
:104128000AA8FDF7A3FB07F8010BAF42F7D18DE70B
:10413800A3F5C871C54A8D1082FB0532CC17C4EBB4
:10414800620404EB84030022EB1A01F00301904699
:104158000E9410910F931192012501E75A10B32A7A
:1041680003F0010840F37481F32A00F38F81B43A15
:104178001411C2F38101002302F0030210920E947D
:104188000F9111931A460425EAE69E46DC460AF189
:10419800F8050AF58470002112AE234656F82170FE
:1041A80045F8043F0131042940F8047F00F04581B7
:1041B8005CF8043FF2E7096C00290CBF01260226CF
:1041C800DDE60A6C002A00F03081209B209A5B0112
:1041D80003939B1A4FEA49129B00C9EB020503EBB4
:1041E8004505013D04925544002721460AA8FDF7DC
:1041F8003DFB0137062F05F8010FF6D10F9C012270
:10420800032320980399CDF88490091A0498920002
:104218008900C9EB0008B7185A4401EB48089346CF
:1042280057F8046B002E20DD1E4406EB460503EB11
:104238004303434445440AEB0309554421460AA86D
:10424800FDF714FB214689F817000AA8FDF70EFBB5
:10425800214689F818000AA8FDF708FB09F10309A7
:1042680089F81600A945E9D1334616AA974274D0B1
:104278005BF8044FD4E71B6C002B00F0CF80209A2A
:1042880052014FEA4913114604930392C9EB030202
:104298000B4620995B1A52009B00D7180732013F42
:1042A800134457440AEB030629460AA8FDF7DEFA29
:1042B80007F8010FB742F7D10323049A2098C9EBF6
:1042C8000201039A121A490092008F1803EB430364
:1042D800123103EB07080A44D0440AEB02062946C8
:1042E8000AA8FDF7C3FA294688F817000AA8FDF7B7
:1042F800BDFA294688F818000AA8FDF7B7FA08F1A8
:10430800030888F81600B045E9D1574421460AA8A1
:10431800FDF7ACFA214687F829000AA8FDF7A6FAA6
:10432800214687F82A000AA8FDF7A0FA033787F87C
:104338002800BE42EAD1209A039B9B1A049A9B004C
:10434800C9EB020203EB42035344002283F83D20E9
:1043580083F83C2083F83B2078E6DDF88490EAE790
:10436800209B209A5B0103939B1A4FEA49129B00FA
:10437800C9EB020803EB480808F1FF380492D0445F
:1043880029460AA8FDF772FA0137062F08F8010F27
:10439800F6D156E5049B039A2099C9EB03035B0009
:1043A800C1EB020803EB880808F10508D04406278A
:1043B80029460AA8FDF75AFA01370B2F08F8010F0A
:1043C800F6D158E5049B039A2099C9EB03035B00D7
:1043D800571A03EB87070A3757440B2521460AA8C3
:1043E800FDF744FA0135102D07F8010FF6D15DE508
:1043F800049B039A2099C9EB03035B00561A03EB4D
:1044080086060F365644102521460AA8FDF72EFACF
:104418000135152D06F8010FF6D162E54FEA49126C
:104428000492209A5201039247E74FEA49110491F6
:104438002099490113460391E3E67346CAF8F880C8
:10444800B7E58846012202258AE500BF67666666E9
:10445800174D184985FB0254DB17C3EBE40404EB42
:10446800C403A2EB830281FB0213A3EBE27303EB09
:104478004301A2EB4102002110920E940F93119177
:104488000A4603256CE54FF0FF30FEE50A4CF43A86
:1044980084FB0234A4EBE27404EB4403D21A002335
:1044A8000F920E94119310931A46052558E500BFF4
:1044B800398EE338ABAAAA2A565555552DE9F0434B
:1044C80000294FF000079146BE461FDD3E46041FF7
:1044D80000F6FC0554F8043F55F8040F1A181B1A87
:1044E80022602B6020684FEAE37C4FEAE07880EA9C
:1044F800080083EA0C030136C8EB0000CCEB030389
:10450800B1424EEA000E47EA0307E3D1D9F800307A
:10451800D9F8041043EA0E030F4389E88800BDE880
:10452800F08300BF2DE9F04F97B0209C0C90A6694E
:10453800002E79D1D4F82C80526B2198219D67697F
:10454800DFF8FCC208F1010EC00032F91E40C5EBCD
:10455800000ABE45A1EB04050CEB8A01019100F3AA
:104568006981002D40F3668103EB080B3B440293FD
:10457800B24B034403931BF8013F02EB480202329B
:10458800072BB1460092B046A4463CD0019951F899
:1045980023E08F69CEEB0707009B33F902AF009346
:1045A800CCEB0A0CBCF1000F24DDA0000C9A00F63D
:1045B800FC06A4441644104401E0043075B30368B3
:1045C80087FB03239B00D91746F8043F4B405B1A2F
:1045D800026849EA03098EFB02329200D11782EA87
:1045E800010301345B1A6445026005F1FF3548EAAE
:1045F8000308E2D1029B9B4510D07DB11BF8013F17
:10460800072BD446C2D18D4B219A53F832E0039B35
:104618005F68C1E7DDF80090DDF80480239B83E83C
:10462800000317B0BDE8F08F013E012E40F2F28082
:1046380000242546A2462198219F814EC000CAEB3E
:104648000101C71B8E46AC4206EB87010D9140F372
:10465800ED807146022940F3E980526B05EB450174
:1046680004EB440402EB4505173104F11402591810
:1046780013440F93714B0A914FF0000905F12E0472
:104688000344CDF80090CDF804900B940E93F146B6
:104698000A980D9C002210F8013B072B00F0A2801D
:1046A80054F82310A36910AD5B1A45F8221013A91A
:1046B80041F822300132032AEDD10B9A32F9023F38
:1046C8000B9232F9022C9B1A002B40F39880139A14
:1046D8000592109A089203EB4303149A07925344E5
:1046E800119A09920393159A0C9B06920AF10108F4
:1046F800129A049203EB880802E0B9F1020F89DDEF
:1047080058F8043C059A1946104680FB0121890097
:10471800089AC8F8FC184FEAE17E81EA0E011046B3
:1047280080FB03239B00D8F80020079C48F8043C32
:10473800DE17734002931046234683FB0040800037
:10474800099CC8F800094FEAE07C80EA0C0023467F
:1047580083FB02429200D8F80440C8F80020D7171B
:104768007A402546069B83FB05B5AD004FEAE57BFD
:10477800CEEB0101CCEB000085EA0B0E0843CBEB36
:104788000E0B0099C8F8045940EA0B000143009148
:10479800049B83FB0414A400029BC8F80440E1179F
:1047A8009B1BD21B81EA04001A43411A019B0A434E
:1047B80013430193039B0AF1030A9A45A9F10309DC
:1047C80008F10C0899D10A9A0F998A4213463FF4C6
:1047D80021AF0333B9F1020F0A937FF71BAFDDF85E
:1047E8000CA055E7154B219910AD53F831100E9BCD
:1047F80045F8221013A95B6841F822305AE70A9B52
:104808000F9A93423FF406AF0A9BCDF80CA00333EE
:104818000A93E4E7A56A506B246900EB450001346C
:10482800B0F93000013500EB400A04E74FF0000909
:10483800C846F3E6B146B046F0E600BF7479010811
:10484800847A01082DE9F04FA1B0B24D2B9E2C9F20
:104858003468059307EB440405EB8413DDF8A8E0FE
:104868000193944606F1100900274FF0010856F805
:10487800044F356908FA04F4002D04F1FF3410DD03
:1048880007F18043013B5A1909AB03EB87030DF18C
:10489800240A0AEB8202043B43F8044F9342FBD1FB
:1048A8002F444E45E3D1DEF81820002A40F09280CC
:1048B800DEF82C30DCF83440DEF81450069503F1AD
:1048C800010A2E4634F91A800125C8EB0101B245C8
:1048D8001F9500911E9575DC04EB43049346A21CBA
:1048E8000492059A1A4402928B4B2C9A03EBC2034A
:1048F800079320AB03EB8A03603B0393D9464346F7
:10490800029A039C12F8011F029254F8042F039490
:10491800914250D04A1CCC074FEA620247D5019910
:1049280051F82260002201998F58049931F9022F19
:104938000592C3EB020C009B04919C45A8BF9C46C2
:10494800BCF1000F0AF1010A27DD08F1804E4FEA99
:1049580088050EF1FF3E2C1FE64405F6FC0500EB2A
:104968008E0E0444054454F8043F87FB03239B0040
:10497800D91745F8043F4B405B1A22684BEA030BF2
:1049880086FB02329200D11782EA01035B1A744552
:10499800226049EA0309E6D1E044009BB3EB0C032B
:1049A800009311D0069B53450EDB059BA8E70199A0
:1049B80092000E68B7E7584A2C9952F83160079A66
:1049C8005768B2E7934691462E9B83E8000A21B0C8
:1049D800BDE8F08F0EF1180204922C994E4ADCF8CB
:1049E800343007934FF0000B012302EBC10206920B
:1049F8001593D946CDF80CB0049B079F53F8042FA4
:104A08000493194607EB420351F8181CB3F93030E8
:104A1800039E0324551CA6468D4213FB0E646CDCD2
:104A2800059D01EB41013144691802EB420C0291EA
:104A380009A907EB420AB44401EB8202AC440AF12B
:104A4800300A0092009D9CF81A1055F8042F009522
:104A5800914240D04A1CC9074FEA620237D50199F2
:104A680051F8227000223AF9028F0199C3EB08032A
:104A7800002B8E583BDD03EB430303EB040E00EBE6
:104A8800840550F8243086FB03239B00D917C5F80A
:104A980000394B405B1A50F824204BEA030B87FB84
:104AA80002329200D11781EA020340F8242003342D
:104AB8005B1A744505F10C0549EA0309E1D1029B2B
:104AC8000CF1030C9C4518D043467446BAE701998B
:104AD80092000F68C7E7104A2C993AF9028F52F8EA
:104AE8003170069AC3EB0803002B5668C3DC029B9F
:104AF8000CF1030C9C45A646E6D1039B0133032B1E
:104B080003937FF479AF2E9B83E8000A21B0BDE8B8
:104B1800F08F00BF8479010874790108002800F03B
:104B28008180C368002B7DD02DE9F04F446985B0A2
:104B3800002C74D0D0F81880B8F1000F6FD0D0F8DE
:104B4800BC37022B0F4608F5085604F5D8592BD068
:104B5800326809F118094FF0000A0AF00105D9F87E
:104B68000030009320462B46414600F061F8336838
:104B78002E4A2901294403EB8111384608EB8101AB
:104B880000F0DCFB32680AF1010A521B02F007024E
:104B9800BAF1120F04F1800407F140073260DCD14A
:104BA800002005B0BDE8F08F04F51063CB460293F2
:104BB800326808F1800309F118090BF11C0B039303
:104BC8004FF0000A0AF00105D9F80030009320469A
:104BD8002B46414600F02CF8DBF800303268039988
:104BE800009304F510602B4600F022F833680F4A52
:104BF8002901294403EB8111384608EB810100F0B3
:104C080011FD3268029B521B803402F00702A34256
:104C18000AF1010A07F180073260D3D1C0E74FF0EB
:104C2800FF30BEE74FF0FF30704700BF90740108B7
:104C38002DE9F04F8DB0169C0591052C079206932F
:104C480000F37983C4F1060B031F00F17C0153F8CC
:104C5800042F42FA0BF299421A60F8D10468C16F26
:104C6800C76B066CCB4A631A214482FB03435D0081
:104C7800BC1BBA19C84B83FB04648B186401891ADE
:104C88000360C64F87FB012149002E192A1BC16307
:104C9800066487FB0212D0F804E0846F876B466CC9
:104CA800BF495500C567C4EB0E02744481FB02522C
:104CB800BD1BB9195200BB4E86FB057566180496D4
:104CC800641A4660E900B84F87FB0454561864001C
:104CD800511A8463466487FB01218268446F476BDD
:104CE800866CB24D49008167C4EB020E111985FB31
:104CF8000E2EBD1BBA194FEA4E04AD4E86FB057544
:104D080006F1D7668F1806F58F468A1AED000897C0
:104D18008760343686FB021251006719621B4163B3
:104D2800876486FB0212D0F80CE0046F066BC56C32
:104D3800A04F5200C4EB0E014267744487FB012167
:104D48009D4F721B4900354487FB02626619920029
:104D5800641B0196C660994D85FB04648E18640037
:104D68008A1A0463C66485FB0212D0F810E0C46E88
:104D7800C66A056D924F5200C4EB0E010267744477
:104D880087FB0121721B490035448E4E86FB027257
:104D980004EB050E9200641BC0F810E08A4D85FBF9
:104DA80004648E1864008A1AC462066585FB0212C0
:104DB800D0F814C0846E866A456D844F5200C4EBE7
:104DC8000C01C266644487FB0121721B490035440B
:104DD8007F4E86FB027266195200641B0996466173
:104DE8007C4D85FB04648E18A4008A1A846246658B
:104DF80085FB02128769416ED0F824C0856D764E16
:104E080092007C1A8266394486FB042406F1DE5639
:104E180006F5CC36C5EB0C0264006544153686FBF6
:104E2800027201EB05085200491BC0F818806B4D4F
:104E380085FB0161A6188900A41A4162866585FB75
:104E48000424C669016ED0F820C0C76D05F1684515
:104E5800A40005F50E15721A05F6E63544663144C8
:104E680085FB02425E4CC7EB0C0552000CEB0706B3
:104E780084FB05758C196D00891BC461594E86FB2E
:104E8800017157190901521B0162C76586FB02129D
:104E98005549564D039156490B95120102915549B2
:104EA8000266CDF828B07546A346DFF85CA1049CDD
:104EB800514F0491514E099A0199DDF82CE0DDF823
:104EC8002090089000F1200CCBEB03005B4486FB9C
:104ED80000B04E1B400029448EFB06565D1ACB18C5
:104EE800F600019387FB0535C6EB000E6D003044D4
:104EF80087FB0E3E049EC8EB04034FEA4E0E444463
:104F0800314681FB0363029EC2EB09075B004A44FA
:104F1800314681FB0767C2EB040B7F001444039EF4
:104F280086FB0B2BC7EB03094FEA8B0B1F4486FB51
:104F38000939019A4FEA8909161B314A82FB06365C
:104F48002F49CBEB050281FB02325300019A4CF842
:104F5800143C22445D4411461D4476004CF8201C44
:104F6800C21B4CF8185C4CF81C6C254981FB0232BA
:104F7800C9EB0E035200CE440C4684FB03135900C0
:104F8800204B4CF8041C8E4407440AF1180A02EB23
:104F98000E043BE051C21340FB22855172464F403C
:104FA800BD45B340CF200B6D103CE1426D2DFA4159
:104FB8009057D9412134F943968DFC5E630ECB524C
:104FC800C41BCC46971AD84A2E40E264F09C9D4AEE
:104FD800B31D7D7CA924E2431137AE4FC1923C6ECC
:104FE800EBF64C5F044E9E5145BA9E5342670352FE
:104FF800BF6B327388DEF84CEFE9454546FB40410C
:105008009A79825AD47D0108747D010877440A444C
:1050180053454CF8107C4CF8084C4CF80C2C0CF10F
:10502800200C1FD05AF80C0C04905AF8080C029067
:105038005AF8040C5CF8203C5CF804BC5CF8141CBE
:105048005CF8105C5AF8186C5AF814EC5AF8107C92
:105058005CF81C4C5CF8088C5CF8189C5CF80C2C10
:10506800039031E7079A069BDDF828B00898D21A12
:1050780002F00702002B00F05381059D046802F539
:10508800806105EB81031C6245F821404FF4886379
:105098000799059F0B4407EB83054168296247F888
:1050A8002310446E436F416C23441944C5F8201102
:1050B800C5F80011466A416B3144C5F82012C5F89D
:1050C8000012416D0B44C5F82033C5F8003341691F
:1050D800C36E446FC5F82014C5F80014416D1C4414
:1050E8002144C5F82015C5F80015416BC36A0B4467
:1050F800C5F82036C5F80036C36C2344C5F82037F8
:10510800C5F80037C46EC168C36FC5F82018C5F864
:105118000018C16C1C442144C5F82019C5F80019B1
:10512800C16AC36B0B44C5F8203AC5F8003AC36D91
:1051380006992344C5F8203BC5F8003BC369C66FF0
:10514800C5F8203CC5F8003CC36D00293344C5F8B8
:10515800203DC5F8003D0CBF4FF48864002402F1DF
:105168001001C36BC5F8203E0C44C5F8003EC5F8D5
:10517800206F07EB8403C5F8006F45681D6247F888
:105188002450866F446E456C34442544C3F820513E
:10519800C3F80051456A876B2F44C3F82072C3F8DF
:1051A8000072856D2544C3F82053C3F80053846901
:1051B800C3F82044C3F80044866E846F856D344478
:1051C8002544C3F82055C3F80055856B876A2F44DA
:1051D800C3F82076C3F80076856C2544C3F82057B9
:1051E800C3F800578468C3F82048C3F80048066F1E
:1051F800846E856C34442544C3F82059C3F800599B
:10520800856A076B2F44C3F8207AC3F8007A056DC6
:105218002544C3F8205BC3F8005B0469C3F8204C3D
:10522800C3F8004C066E046F056D34442544C3F87A
:10523800205DC3F8005D076A056B3D44C3F8205E36
:10524800C3F8005E006C0444C3F8204FC3F8004F55
:10525800BBF1000F61D0069B059F002B0CBF4FF4DC
:105268008863002302F580621A44CBF11F0457F8C3
:105278002230DD1743FA04F6B54207EB820003D06B
:105288000123A340013B6B40069D059E002D079D11
:105298000CBF00274FF488672F44012503FA0BF34E
:1052A80006EB8707A5400362013D46F8223007F167
:1052B800200207F5815752F8203CD81743FA04F624
:1052C800B04218BF80EA050303FA0BF3136042F8F3
:1052D800203C02F580729742EDD1069B002B0CBF53
:1052E8004FF488660026059B0E4403EB860606F1FC
:1052F800200206F5815652F8203CD91743FA04F0EB
:10530800814218BF85EA010303FA0BF3136042F8E0
:10531800203C02F580729642EDD10DB0BDE8F08FC9
:10532800059D046802F5046105EB81031C62069B78
:1053380045F82140ACE64FF0000B8FE42DE9F04F23
:105348004FF0007383B04FF0000E8446176854681E
:105358000E68CD6DC6FB073E66427446C5FB063433
:10536800D5684F688E6D9068C7FB00346D42C6FBE8
:10537800053455698F684E6D1069C7FB00346D425E
:10538800C6FB0534D569CF680E6D9069C7FB00343C
:105398006D42C6FB0534556A0F69CE6C106AC7FBAF
:1053A80000346D42C6FB0534D56A4F698E6C906A2D
:1053B800C7FB00346D42C6FB0534556B8F694E6CD4
:1053C800106BC7FB00346D42C6FB0534D56BCF6943
:1053D8000E6C906BC7FB00346D42C6FB05341B0D89
:1053E80043EA0433DC17B4EB635F18BF84F4FF456A
:1053F80001F580560CBF9D1185F07F05ACF8005073
:105408004FF0007300243668D2F80054C6FB053408
:1054180041F20405D2F804644D59C5FB063441F243
:105428000805D2F808644D59C5FB063441F20C054D
:10543800D2F80C644D59C5FB063441F21005D2F878
:1054480010644D59C5FB063441F21405D2F81464B2
:105458004D59C5FB063441F21805D2F818644D5968
:10546800C5FB063441F21C05D2F81C644D59C5FB36
:1054780006341B0D43EA0433DD17B5EB635F4FEACF
:10548800A3141CBF85F4FF4484F07F0402F58863ED
:10549800ACF820400CF14009E64602F18006019381
:1054A8004FF000784FF0000C56F840AC56F83CBC72
:1054B800D1F80051D1F85C7142466446C5FB0A2414
:1054C80043466046C5FB0B30CBF10005C7FB0524FE
:1054D800C7FB0A3056F8387C56F834ACD1F804B11A
:1054E800D1F85851CBFB0724CBFB0A30CAF1000A8C
:1054F800C5FB0A24C5FB073056F8307C56F82CAC9F
:10550800D1F808B1D1F85451CBFB0724CBFB0A30B2
:10551800CAF1000AC5FB0A24C5FB073056F8287CE7
:1055280056F824ACD1F80CB1D1F85051CBFB072474
:10553800CBFB0A30CAF1000AC5FB0A24C5FB0730B9
:1055480056F8207C56F81CACD1F810B1D1F84C5163
:10555800CBFB0724CBFB0A30CAF1000AC5FB0A249F
:10556800C5FB073056F818AC56F8145CD1F814B1DE
:10557800D1F84871CBFB0A24CBFB05306D42C7FB41
:105588000524C7FB0A3056F810AC56F80C5CD1F865
:1055980018B1D1F84471CBFB0A24CBFB05306D421E
:1055A800C7FB0524C7FB0A3056F808AC56F8045C5C
:1055B800D1F81CB1D1F84071CBFB0A24CBFB0530E4
:1055C8006D42C7FB0524C7FB0A30120D42EA0432BC
:1055D800D5171B0DB5EB625F43EA00334FEAA214FF
:1055E8004FEAE37018BF85F4FF444FEAA31218BFCF
:1055F80084F07F04B0EB635F019B2EF8024F18BF65
:1056080080F4FF4206F1400618BF82F07F029E42F6
:1056180029F8022D01F580717FF446AF03B0BDE88B
:10562800F08F00BF2DE9F04F4FF00073002585B0D3
:1056380016680F681C46AE46C7FB064E5768C7F18A
:10564800000CCF6DC7FB0C4ED1F88070C7FB063538
:10565800D1F8DC60C6FB0C3596684F68C7FB064E70
:10566800D768C7F1000C8F6DC7FB0C4ED1F884705A
:10567800C7FB0635D1F8D860C6FB0C3516698F68AC
:10568800C7FB064E5769C7F1000C4F6DC7FB0C4EA0
:10569800D1F88870C7FB0635D1F8D460C6FB0C3545
:1056A8009669CF68C7FB064ED769C7F1000C0F6D26
:1056B800C7FB0C4ED1F88C70C7FB0635D1F8D0600B
:1056C800C6FB0C35166A0F69C7FB064E576AC7F149
:1056D800000CCF6CC7FB0C4ED1F89070C7FB063599
:1056E800D1F8CC60C6FB0C35966A4F69C7FB064EED
:1056F800D76AC7F1000C8F6CC7FB0C4ED1F89470B9
:10570800C7FB0635D1F8C860C6FB0C35166B8F6928
:10571800C7FB064E576BC7F1000C4F6CC7FB0C4E0E
:10572800D1F89870C7FB0635D1F8C460C6FB0C35B4
:10573800966BCF69C7FB064ED76BC7F1000C0F6C91
:10574800C7FB0C4ED1F89C70C7FB0635D1F8C0607A
:10575800C6FB0C35240D44EA0E34E7171B0DB7EBD6
:10576800645F43EA053318BF87F4FF464FEAE375E1
:105778000CBFA61186F07F06B5EB635F4FEAA31452
:1057880018BF85F4FF4401F5805318BF84F07F04E7
:10579800068000274FF00076039344801B68D2F8F8
:1057A80000543446BC46C3FB054C01F5845EDEF864
:1057B80000E0CEFB056741F2040E6346D2F80454BC
:1057C80051F80EE0CEFB054341F2840E51F80EE08D
:1057D800CEFB056741F2080E254651F80EE0D2F8D7
:1057E8000844CEFB045341F2880E51F80EE0CEFB7C
:1057F800046741F20C0E2C4651F80EE0D2F80C5416
:10580800CEFB054341F28C0E51F80EE0CEFB056746
:1058180041F21005D2F810E44D59C5FB0E4341F290
:10582800900C35463E4651F80C70C7FB0E5641F2B7
:10583800140ED2F8147451F80EE0CEFB074341F26F
:10584800940E51F80EE0CEFB075641F2180ED2F82E
:10585800187451F80EE0CEFB074341F2980E51F848
:105868000EE0CEFB075641F21C0ED2F81C7451F81C
:105878000EE0CEFB074341F29C0E51F80EE0CEFB42
:105888000756240D44EA0334E317B3EB645F4FEA89
:10589800A41718BF83F4FF474FEA155343EA0633AA
:1058A8004FEAE37518BF87F07F07B5EB635F4FEAF0
:1058B800A3141CBF85F4FF4484F07F0400F108039F
:1058C800A0F84070A0F8424001F5807102F1800B09
:1058D800009301905BF840CC5BF83C8C0868CB6D7A
:1058E8004FF000744FF0000EC0FB0C4E4FF00072EA
:1058F8000026C0FB0826C8F10009C3FB094EC3FBFC
:105908000C264FF000700292D1F880A00027CAFB45
:105918000C074FF000730025CAFB0835D1F8DC20CE
:10592800C2FB0907C2FB0C355BF838AC5BF834CC1A
:10593800D1F80490D1F85880C9FB0A4E029AC9FBE5
:105948000C26CCF10009C8FB094EC8FB0A260292B6
:10595800D1F8D880D1F88420C2FB0A07C2FB0C35E5
:10596800C8FB0907C8FB0A355BF830AC5BF82CCCE0
:10597800D1F80890D1F85480C9FB0A4E029AC9FBA5
:105988000C26CCF10009C8FB094EC8FB0A26029276
:10599800D1F8D480D1F88820C2FB0A07C2FB0C35A5
:1059A800C8FB0907C8FB0A355BF828AC5BF824CCB0
:1059B800D1F80C90D1F85080C9FB0A4E029AC9FB65
:1059C8000C26CCF10009C8FB094EC8FB0A26029236
:1059D800D1F8D080D1F88C20C2FB0A07C2FB0C3565
:1059E800C8FB0907C8FB0A355BF820AC5BF81CCC80
:1059F800D1F81090D1F84C80C9FB0A4E029AC9FB25
:105A08000C26CCF10009C8FB094EC8FB0A260292F5
:105A1800D1F8CC80D1F89020C2FB0A07C2FB0C3524
:105A2800C8FB0907C8FB0A355BF818AC5BF814CC4F
:105A3800D1F81490D1F84880C9FB0A4E029AC9FBE4
:105A48000C26CCF10009C8FB094EC8FB0A260292B5
:105A5800D1F8C880D1F89420C2FB0A07C2FB0C35E4
:105A6800C8FB0907C8FB0A355BF810AC5BF80CCC1F
:105A7800D1F81890D1F84480C9FB0A4E029AC9FBA4
:105A88000C26CCF10009C8FB094EC8FB0A26029275
:105A9800D1F8C480D1F89820C2FB0A07C2FB0C35A4
:105AA800C8FB0907C8FB0A351BE90014D1F81C908C
:105AB800D1F84080C9FB0A4E029AC9FB0C26CCF1EA
:105AC8000009C8FB094EC8FB0A260292D1F8C0801B
